:020000040000FA
:060000009FEF00F012006A
:06002A0001005C01000072
:08003000800000003D0000000B
:080038002A0EF66E000EF76EB1
:10004000000EF86E00010900F550C26F0900F5506E
:10005000C36F03E1C26701D03DD00900F550BD6F09
:100060000900F550BE6F0900F550BF6F0900090087
:10007000F550E96E0900F550EA6E09000900090023
:10008000F550C06F0900F550C16F09000900F6CFA7
:10009000C4F0F7CFC5F0F8CFC6F0BDC0F6FFBEC0C4
:1000A000F7FFBFC0F8FF0001C05302E1C15307E0F2
:1000B0000900F550EE6EC007F8E2C107F9D7C4C0D9
:1000C000F6FFC5C0F7FFC6C0F8FF0001C207000E6B
:0600D000C35BBFD7120064
:0A00D600710E926E1200FCDFC250A2
:1000E000200B07E1C250100B04E1C250080B01E1E4
:1000F00009D0C250200B06E0C250100B03E0C250E2
:10010000080B00E09EA2FED79E92FA0E0001821913
:0E01100002E1010E831901E10000E1D71200A7
:02011E00000ED1
:10012000F36E00EE00F0060E01D81200EA6002D075
:0E013000EE6AFCD7F350E9601200EE6AFCD7CD
:02013E0015EEBC
:1001400000F025EE00F0F86A019C1CEC00F0ADEC2C
:0A01500000F06EEC00F0FBD7120087
:02015A00120091
:04015C00000000009F
:10016000416E616C6F67496E203D00000000000029
:1001700000000000416E616C6F674F75743D0000B8
:10018000000000000000000020202020202020206F
:0901900020202020202020200066
:020000040030CA
:0100010022DC
:010003000EEE
:010006008178
:00000001FF
