:020000040000FA
:06000000C2EF00F0120047
:06002A000100A20100002C
:08003000800000003D0000000B
:080038002A0EF66E000EF76EB1
:10004000000EF86E00010900F550C26F0900F5506E
:10005000C36F03E1C26701D03DD00900F550BD6F09
:100060000900F550BE6F0900F550BF6F0900090087
:10007000F550E96E0900F550EA6E09000900090023
:10008000F550C06F0900F550C16F09000900F6CFA7
:10009000C4F0F7CFC5F0F8CFC6F0BDC0F6FFBEC0C4
:1000A000F7FFBFC0F8FF0001C05302E1C15307E0F2
:1000B0000900F550EE6EC007F8E2C107F9D7C4C0D9
:1000C000F6FFC5C0F7FFC6C0F8FF0001C207000E6B
:0600D000C35BBFD7120064
:0A00D600710E926EFB0E946EF00E98
:1000E000956E070E966ECB680F0EBD6E040ECA6E2F
:1000F000810EC26EC16A1200EEDFC284C2B4FED7A6
:10010000C250200B12E1C250100B0FE1C250080B7D
:100110000CE1C3CF80F0C4CF81F080C0BEFF81C0AE
:10012000BFFFC28AC288C28610D0C250200B0DE029
:10013000C250100B0AE0C250080B07E0C3CF82F098
:10014000C4CF83F0C29AC298C2969EA2FED79E9256
:10015000FA0E0001821902E1010E831901E100008B
:04016000CCD71200E6
:0C016400000EF36E00EE00F0060E01D855
:100170001200EA6002D0EE6AFCD7F350E960120088
:04018000EE6AFCD750
:0C01840015EE00F025EE00F0F86A019C7A
:100190001CEC00F0D0EC00F07CEC00F0FBD712007F
:0201A00012004B
:0E01A20000000000416E616C6F67496E203DE9
:1001B00000000000000000000000416E616C6F67ED
:1001C0004F75743D0000000000000000000020207A
:0F01D00020202020202020202020202020200060
:020000040030CA
:0100010022DC
:010003000EEE
:010006008178
:00000001FF
